{
  "contractName": "SecurityToken",
  "abi": [
    {
      "constant": true,
      "inputs": [],
      "name": "mintingFinished",
      "outputs": [
        {
          "name": "",
          "type": "bool"
        }
      ],
      "payable": false,
      "stateMutability": "view",
      "type": "function",
      "signature": "0x05d2035b"
    },
    {
      "constant": true,
      "inputs": [],
      "name": "name",
      "outputs": [
        {
          "name": "",
          "type": "string"
        }
      ],
      "payable": false,
      "stateMutability": "view",
      "type": "function",
      "signature": "0x06fdde03"
    },
    {
      "constant": true,
      "inputs": [],
      "name": "totalSupply",
      "outputs": [
        {
          "name": "",
          "type": "uint256"
        }
      ],
      "payable": false,
      "stateMutability": "view",
      "type": "function",
      "signature": "0x18160ddd"
    },
    {
      "constant": true,
      "inputs": [],
      "name": "decimals",
      "outputs": [
        {
          "name": "",
          "type": "uint8"
        }
      ],
      "payable": false,
      "stateMutability": "view",
      "type": "function",
      "signature": "0x313ce567"
    },
    {
      "constant": true,
      "inputs": [],
      "name": "cap",
      "outputs": [
        {
          "name": "",
          "type": "uint256"
        }
      ],
      "payable": false,
      "stateMutability": "view",
      "type": "function",
      "signature": "0x355274ea"
    },
    {
      "constant": false,
      "inputs": [],
      "name": "unpause",
      "outputs": [],
      "payable": false,
      "stateMutability": "nonpayable",
      "type": "function",
      "signature": "0x3f4ba83a"
    },
    {
      "constant": true,
      "inputs": [],
      "name": "paused",
      "outputs": [
        {
          "name": "",
          "type": "bool"
        }
      ],
      "payable": false,
      "stateMutability": "view",
      "type": "function",
      "signature": "0x5c975abb"
    },
    {
      "constant": true,
      "inputs": [
        {
          "name": "_owner",
          "type": "address"
        }
      ],
      "name": "balanceOf",
      "outputs": [
        {
          "name": "",
          "type": "uint256"
        }
      ],
      "payable": false,
      "stateMutability": "view",
      "type": "function",
      "signature": "0x70a08231"
    },
    {
      "constant": false,
      "inputs": [],
      "name": "renounceOwnership",
      "outputs": [],
      "payable": false,
      "stateMutability": "nonpayable",
      "type": "function",
      "signature": "0x715018a6"
    },
    {
      "constant": false,
      "inputs": [],
      "name": "finishMinting",
      "outputs": [
        {
          "name": "",
          "type": "bool"
        }
      ],
      "payable": false,
      "stateMutability": "nonpayable",
      "type": "function",
      "signature": "0x7d64bcb4"
    },
    {
      "constant": false,
      "inputs": [],
      "name": "pause",
      "outputs": [],
      "payable": false,
      "stateMutability": "nonpayable",
      "type": "function",
      "signature": "0x8456cb59"
    },
    {
      "constant": true,
      "inputs": [],
      "name": "owner",
      "outputs": [
        {
          "name": "",
          "type": "address"
        }
      ],
      "payable": false,
      "stateMutability": "view",
      "type": "function",
      "signature": "0x8da5cb5b"
    },
    {
      "constant": true,
      "inputs": [],
      "name": "whitelist",
      "outputs": [
        {
          "name": "",
          "type": "address"
        }
      ],
      "payable": false,
      "stateMutability": "view",
      "type": "function",
      "signature": "0x93e59dc1"
    },
    {
      "constant": true,
      "inputs": [],
      "name": "symbol",
      "outputs": [
        {
          "name": "",
          "type": "string"
        }
      ],
      "payable": false,
      "stateMutability": "view",
      "type": "function",
      "signature": "0x95d89b41"
    },
    {
      "constant": true,
      "inputs": [
        {
          "name": "_owner",
          "type": "address"
        },
        {
          "name": "_spender",
          "type": "address"
        }
      ],
      "name": "allowance",
      "outputs": [
        {
          "name": "",
          "type": "uint256"
        }
      ],
      "payable": false,
      "stateMutability": "view",
      "type": "function",
      "signature": "0xdd62ed3e"
    },
    {
      "constant": false,
      "inputs": [
        {
          "name": "_newOwner",
          "type": "address"
        }
      ],
      "name": "transferOwnership",
      "outputs": [],
      "payable": false,
      "stateMutability": "nonpayable",
      "type": "function",
      "signature": "0xf2fde38b"
    },
    {
      "inputs": [
        {
          "name": "_cap",
          "type": "uint256"
        },
        {
          "name": "_name",
          "type": "string"
        },
        {
          "name": "_symbol",
          "type": "string"
        },
        {
          "name": "_decimals",
          "type": "uint8"
        },
        {
          "name": "_whitelist",
          "type": "address"
        }
      ],
      "payable": false,
      "stateMutability": "nonpayable",
      "type": "constructor",
      "signature": "constructor"
    },
    {
      "anonymous": false,
      "inputs": [
        {
          "indexed": true,
          "name": "burner",
          "type": "address"
        },
        {
          "indexed": false,
          "name": "value",
          "type": "uint256"
        }
      ],
      "name": "Burn",
      "type": "event",
      "signature": "0xcc16f5dbb4873280815c1ee09dbd06736cffcc184412cf7a71a0fdb75d397ca5"
    },
    {
      "anonymous": false,
      "inputs": [],
      "name": "Pause",
      "type": "event",
      "signature": "0x6985a02210a168e66602d3235cb6db0e70f92b3ba4d376a33c0f3d9434bff625"
    },
    {
      "anonymous": false,
      "inputs": [],
      "name": "Unpause",
      "type": "event",
      "signature": "0x7805862f689e2f13df9f062ff482ad3ad112aca9e0847911ed832e158c525b33"
    },
    {
      "anonymous": false,
      "inputs": [
        {
          "indexed": true,
          "name": "to",
          "type": "address"
        },
        {
          "indexed": false,
          "name": "amount",
          "type": "uint256"
        }
      ],
      "name": "Mint",
      "type": "event",
      "signature": "0x0f6798a560793a54c3bcfe86a93cde1e73087d944c0ea20544137d4121396885"
    },
    {
      "anonymous": false,
      "inputs": [],
      "name": "MintFinished",
      "type": "event",
      "signature": "0xae5184fba832cb2b1f702aca6117b8d265eaf03ad33eb133f19dde0f5920fa08"
    },
    {
      "anonymous": false,
      "inputs": [
        {
          "indexed": true,
          "name": "previousOwner",
          "type": "address"
        }
      ],
      "name": "OwnershipRenounced",
      "type": "event",
      "signature": "0xf8df31144d9c2f0f6b59d69b8b98abd5459d07f2742c4df920b25aae33c64820"
    },
    {
      "anonymous": false,
      "inputs": [
        {
          "indexed": true,
          "name": "previousOwner",
          "type": "address"
        },
        {
          "indexed": true,
          "name": "newOwner",
          "type": "address"
        }
      ],
      "name": "OwnershipTransferred",
      "type": "event",
      "signature": "0x8be0079c531659141344cd1fd0a4f28419497f9722a3daafe3b4186f6b6457e0"
    },
    {
      "anonymous": false,
      "inputs": [
        {
          "indexed": true,
          "name": "owner",
          "type": "address"
        },
        {
          "indexed": true,
          "name": "spender",
          "type": "address"
        },
        {
          "indexed": false,
          "name": "value",
          "type": "uint256"
        }
      ],
      "name": "Approval",
      "type": "event",
      "signature": "0x8c5be1e5ebec7d5bd14f71427d1e84f3dd0314c0f7b2291e5b200ac8c7c3b925"
    },
    {
      "anonymous": false,
      "inputs": [
        {
          "indexed": true,
          "name": "from",
          "type": "address"
        },
        {
          "indexed": true,
          "name": "to",
          "type": "address"
        },
        {
          "indexed": false,
          "name": "value",
          "type": "uint256"
        }
      ],
      "name": "Transfer",
      "type": "event",
      "signature": "0xddf252ad1be2c89b69c2b068fc378daa952ba7f163c4a11628f55a4df523b3ef"
    },
    {
      "constant": false,
      "inputs": [
        {
          "name": "_whitelist",
          "type": "address"
        }
      ],
      "name": "setupWhitelist",
      "outputs": [
        {
          "name": "",
          "type": "bool"
        }
      ],
      "payable": false,
      "stateMutability": "nonpayable",
      "type": "function",
      "signature": "0xfda0c61d"
    },
    {
      "constant": false,
      "inputs": [
        {
          "name": "_to",
          "type": "address"
        },
        {
          "name": "_amount",
          "type": "uint256"
        }
      ],
      "name": "mint",
      "outputs": [
        {
          "name": "",
          "type": "bool"
        }
      ],
      "payable": false,
      "stateMutability": "nonpayable",
      "type": "function",
      "signature": "0x40c10f19"
    },
    {
      "constant": false,
      "inputs": [
        {
          "name": "_to",
          "type": "address"
        },
        {
          "name": "_value",
          "type": "uint256"
        }
      ],
      "name": "transfer",
      "outputs": [
        {
          "name": "",
          "type": "bool"
        }
      ],
      "payable": false,
      "stateMutability": "nonpayable",
      "type": "function",
      "signature": "0xa9059cbb"
    },
    {
      "constant": false,
      "inputs": [
        {
          "name": "_from",
          "type": "address"
        },
        {
          "name": "_to",
          "type": "address"
        },
        {
          "name": "_value",
          "type": "uint256"
        }
      ],
      "name": "transferFrom",
      "outputs": [
        {
          "name": "",
          "type": "bool"
        }
      ],
      "payable": false,
      "stateMutability": "nonpayable",
      "type": "function",
      "signature": "0x23b872dd"
    },
    {
      "constant": false,
      "inputs": [
        {
          "name": "_spender",
          "type": "address"
        },
        {
          "name": "_value",
          "type": "uint256"
        }
      ],
      "name": "approve",
      "outputs": [
        {
          "name": "",
          "type": "bool"
        }
      ],
      "payable": false,
      "stateMutability": "nonpayable",
      "type": "function",
      "signature": "0x095ea7b3"
    },
    {
      "constant": false,
      "inputs": [
        {
          "name": "_spender",
          "type": "address"
        },
        {
          "name": "_addedValue",
          "type": "uint256"
        }
      ],
      "name": "increaseApproval",
      "outputs": [
        {
          "name": "",
          "type": "bool"
        }
      ],
      "payable": false,
      "stateMutability": "nonpayable",
      "type": "function",
      "signature": "0xd73dd623"
    },
    {
      "constant": false,
      "inputs": [
        {
          "name": "_spender",
          "type": "address"
        },
        {
          "name": "_subtractedValue",
          "type": "uint256"
        }
      ],
      "name": "decreaseApproval",
      "outputs": [
        {
          "name": "",
          "type": "bool"
        }
      ],
      "payable": false,
      "stateMutability": "nonpayable",
      "type": "function",
      "signature": "0x66188463"
    },
    {
      "constant": false,
      "inputs": [
        {
          "name": "_who",
          "type": "address"
        },
        {
          "name": "_value",
          "type": "uint256"
        }
      ],
      "name": "burnFor",
      "outputs": [
        {
          "name": "",
          "type": "bool"
        }
      ],
      "payable": false,
      "stateMutability": "nonpayable",
      "type": "function",
      "signature": "0x1dd319cb"
    }
  ],
  "bytecode": "0x60806040526006805460a060020a60ff02191690556008805460ff191690553480156200002b57600080fd5b5060405162001d7d38038062001d7d833981018060405260a08110156200005157600080fd5b8151602083018051919392830192916401000000008111156200007357600080fd5b820160208101848111156200008757600080fd5b8151640100000000811182820187101715620000a257600080fd5b50509291906020018051640100000000811115620000bf57600080fd5b82016020810184811115620000d357600080fd5b8151640100000000811182820187101715620000ee57600080fd5b5050602080830151604090930151865192955092935086918691869186916200011d916000918601906200024b565b508151620001339060019060208501906200024b565b506002805460ff90921660ff19909216919091179055505060068054600160a060020a03191633179055600081116200016b57600080fd5b60075562000182816401000000006200018e810204565b505050505050620002f0565b600654600090600160a060020a03163314620001a957600080fd5b600160a060020a03821615156200022157604080517f08c379a000000000000000000000000000000000000000000000000000000000815260206004820152601960248201527f496e76616c69642077686974656c697374206164647265737300000000000000604482015290519081900360640190fd5b5060088054600160a060020a0383166101000261010060a860020a03199091161790556001919050565b828054600181600116156101000203166002900490600052602060002090601f016020900481019282601f106200028e57805160ff1916838001178555620002be565b82800160010185558215620002be579182015b82811115620002be578251825591602001919060010190620002a1565b50620002cc929150620002d0565b5090565b620002ed91905b80821115620002cc5760008155600101620002d7565b90565b611a7d80620003006000396000f3fe60806040526004361061013d5763ffffffff7c010000000000000000000000000000000000000000000000000000000060003504166305d2035b811461014257806306fdde031461016b578063095ea7b3146101f557806318160ddd1461022e5780631dd319cb1461025557806323b872dd1461028e578063313ce567146102d1578063355274ea146102fc5780633f4ba83a1461031157806340c10f19146103285780635c975abb14610361578063661884631461037657806370a08231146103af578063715018a6146103e25780637d64bcb4146103f75780638456cb591461040c5780638da5cb5b1461042157806393e59dc11461045257806395d89b4114610467578063a9059cbb1461047c578063d73dd623146104b5578063dd62ed3e146104ee578063f2fde38b14610529578063fda0c61d1461055c575b600080fd5b34801561014e57600080fd5b5061015761058f565b604080519115158252519081900360200190f35b34801561017757600080fd5b5061018061059f565b6040805160208082528351818301528351919283929083019185019080838360005b838110156101ba5781810151838201526020016101a2565b50505050905090810190601f1680156101e75780820380516001836020036101000a031916815260200191505b509250505060405180910390f35b34801561020157600080fd5b506101576004803603604081101561021857600080fd5b50600160a060020a03813516906020013561062d565b34801561023a57600080fd5b5061024361079d565b60408051918252519081900360200190f35b34801561026157600080fd5b506101576004803603604081101561027857600080fd5b50600160a060020a0381351690602001356107a3565b34801561029a57600080fd5b50610157600480360360608110156102b157600080fd5b50600160a060020a038135811691602081013590911690604001356108fc565b3480156102dd57600080fd5b506102e6610af8565b6040805160ff9092168252519081900360200190f35b34801561030857600080fd5b50610243610b01565b34801561031d57600080fd5b50610326610b07565b005b34801561033457600080fd5b506101576004803603604081101561034b57600080fd5b50600160a060020a038135169060200135610b64565b34801561036d57600080fd5b50610157610c65565b34801561038257600080fd5b506101576004803603604081101561039957600080fd5b50600160a060020a038135169060200135610c6e565b3480156103bb57600080fd5b50610243600480360360208110156103d257600080fd5b5035600160a060020a0316610dd7565b3480156103ee57600080fd5b50610326610df2565b34801561040357600080fd5b50610157610e60565b34801561041857600080fd5b50610326610ee4565b34801561042d57600080fd5b50610436610f43565b60408051600160a060020a039092168252519081900360200190f35b34801561045e57600080fd5b50610436610f52565b34801561047357600080fd5b50610180610f66565b34801561048857600080fd5b506101576004803603604081101561049f57600080fd5b50600160a060020a038135169060200135610fc0565b3480156104c157600080fd5b50610157600480360360408110156104d857600080fd5b50600160a060020a038135169060200135611129565b3480156104fa57600080fd5b506102436004803603604081101561051157600080fd5b50600160a060020a0381358116916020013516611292565b34801561053557600080fd5b506103266004803603602081101561054c57600080fd5b5035600160a060020a03166112bd565b34801561056857600080fd5b506101576004803603602081101561057f57600080fd5b5035600160a060020a03166112e0565b60065460a060020a900460ff1681565b6000805460408051602060026001851615610100026000190190941693909304601f810184900484028201840190925281815292918301828280156106255780601f106105fa57610100808354040283529160200191610625565b820191906000526020600020905b81548152906001019060200180831161060857829003601f168201915b505050505081565b60085460009060ff161561064057600080fd5b6008546040805160e460020a63020d8dad0281523360048201529051610100909204600160a060020a0316916320d8dad091602480820192602092909190829003018186803b15801561069257600080fd5b505afa1580156106a6573d6000803e3d6000fd5b505050506040513d60208110156106bc57600080fd5b5051801561074857506008546040805160e460020a63020d8dad028152600160a060020a0386811660048301529151610100909304909116916320d8dad091602480820192602092909190829003018186803b15801561071b57600080fd5b505afa15801561072f573d6000803e3d6000fd5b505050506040513d602081101561074557600080fd5b50515b151561078c576040805160e560020a62461bcd0281526020600482015260136024820152600080516020611a12833981519152604482015290519081900360640190fd5b6107968383611391565b9392505050565b60045490565b600654600090600160a060020a031633146107bd57600080fd5b600160a060020a03831660009081526003602052604090205482111561082d576040805160e560020a62461bcd02815260206004820152601260248201527f496e73756666696369656e742066756e64730000000000000000000000000000604482015290519081900360640190fd5b600160a060020a038316600090815260036020526040902054610856908363ffffffff6113ae16565b600160a060020a038416600090815260036020526040902055600454610882908363ffffffff6113ae16565b600455604080518381529051600160a060020a038516917fcc16f5dbb4873280815c1ee09dbd06736cffcc184412cf7a71a0fdb75d397ca5919081900360200190a2604080518381529051600091600160a060020a03861691600080516020611a328339815191529181900360200190a350600192915050565b60085460009060ff161561090f57600080fd5b6008546040805160e460020a63020d8dad0281523360048201529051610100909204600160a060020a0316916320d8dad091602480820192602092909190829003018186803b15801561096157600080fd5b505afa158015610975573d6000803e3d6000fd5b505050506040513d602081101561098b57600080fd5b50518015610a1757506008546040805160e460020a63020d8dad028152600160a060020a0387811660048301529151610100909304909116916320d8dad091602480820192602092909190829003018186803b1580156109ea57600080fd5b505afa1580156109fe573d6000803e3d6000fd5b505050506040513d6020811015610a1457600080fd5b50515b8015610aa157506008546040805160e460020a63020d8dad028152600160a060020a0386811660048301529151610100909304909116916320d8dad091602480820192602092909190829003018186803b158015610a7457600080fd5b505afa158015610a88573d6000803e3d6000fd5b505050506040513d6020811015610a9e57600080fd5b50515b1515610ae5576040805160e560020a62461bcd0281526020600482015260136024820152600080516020611a12833981519152604482015290519081900360640190fd5b610af08484846113c0565b949350505050565b60025460ff1681565b60075481565b600654600160a060020a03163314610b1e57600080fd5b60085460ff161515610b2f57600080fd5b6008805460ff191690556040517f7805862f689e2f13df9f062ff482ad3ad112aca9e0847911ed832e158c525b3390600090a1565b600654600090600160a060020a03163314610b7e57600080fd5b60065460a060020a900460ff1615610b9557600080fd5b6008546040805160e460020a63020d8dad028152600160a060020a0386811660048301529151610100909304909116916320d8dad091602480820192602092909190829003018186803b158015610beb57600080fd5b505afa158015610bff573d6000803e3d6000fd5b505050506040513d6020811015610c1557600080fd5b50511515610c5b576040805160e560020a62461bcd0281526020600482015260136024820152600080516020611a12833981519152604482015290519081900360640190fd5b61079683836113de565b60085460ff1681565b60085460009060ff1615610c8157600080fd5b6008546040805160e460020a63020d8dad0281523360048201529051610100909204600160a060020a0316916320d8dad091602480820192602092909190829003018186803b158015610cd357600080fd5b505afa158015610ce7573d6000803e3d6000fd5b505050506040513d6020811015610cfd57600080fd5b50518015610d8957506008546040805160e460020a63020d8dad028152600160a060020a0386811660048301529151610100909304909116916320d8dad091602480820192602092909190829003018186803b158015610d5c57600080fd5b505afa158015610d70573d6000803e3d6000fd5b505050506040513d6020811015610d8657600080fd5b50515b1515610dcd576040805160e560020a62461bcd0281526020600482015260136024820152600080516020611a12833981519152604482015290519081900360640190fd5b610796838361140d565b600160a060020a031660009081526003602052604090205490565b600654600160a060020a03163314610e0957600080fd5b600654604051600160a060020a03909116907ff8df31144d9c2f0f6b59d69b8b98abd5459d07f2742c4df920b25aae33c6482090600090a26006805473ffffffffffffffffffffffffffffffffffffffff19169055565b600654600090600160a060020a03163314610e7a57600080fd5b60065460a060020a900460ff1615610e9157600080fd5b6006805474ff0000000000000000000000000000000000000000191660a060020a1790556040517fae5184fba832cb2b1f702aca6117b8d265eaf03ad33eb133f19dde0f5920fa0890600090a150600190565b600654600160a060020a03163314610efb57600080fd5b60085460ff1615610f0b57600080fd5b6008805460ff191660011790556040517f6985a02210a168e66602d3235cb6db0e70f92b3ba4d376a33c0f3d9434bff62590600090a1565b600654600160a060020a031681565b6008546101009004600160a060020a031681565b60018054604080516020600284861615610100026000190190941693909304601f810184900484028201840190925281815292918301828280156106255780601f106105fa57610100808354040283529160200191610625565b60085460009060ff1615610fd357600080fd5b6008546040805160e460020a63020d8dad0281523360048201529051610100909204600160a060020a0316916320d8dad091602480820192602092909190829003018186803b15801561102557600080fd5b505afa158015611039573d6000803e3d6000fd5b505050506040513d602081101561104f57600080fd5b505180156110db57506008546040805160e460020a63020d8dad028152600160a060020a0386811660048301529151610100909304909116916320d8dad091602480820192602092909190829003018186803b1580156110ae57600080fd5b505afa1580156110c2573d6000803e3d6000fd5b505050506040513d60208110156110d857600080fd5b50515b151561111f576040805160e560020a62461bcd0281526020600482015260136024820152600080516020611a12833981519152604482015290519081900360640190fd5b610796838361142a565b60085460009060ff161561113c57600080fd5b6008546040805160e460020a63020d8dad0281523360048201529051610100909204600160a060020a0316916320d8dad091602480820192602092909190829003018186803b15801561118e57600080fd5b505afa1580156111a2573d6000803e3d6000fd5b505050506040513d60208110156111b857600080fd5b5051801561124457506008546040805160e460020a63020d8dad028152600160a060020a0386811660048301529151610100909304909116916320d8dad091602480820192602092909190829003018186803b15801561121757600080fd5b505afa15801561122b573d6000803e3d6000fd5b505050506040513d602081101561124157600080fd5b50515b1515611288576040805160e560020a62461bcd0281526020600482015260136024820152600080516020611a12833981519152604482015290519081900360640190fd5b6107968383611447565b600160a060020a03918216600090815260056020908152604080832093909416825291909152205490565b600654600160a060020a031633146112d457600080fd5b6112dd81611464565b50565b600654600090600160a060020a031633146112fa57600080fd5b600160a060020a038216151561135a576040805160e560020a62461bcd02815260206004820152601960248201527f496e76616c69642077686974656c697374206164647265737300000000000000604482015290519081900360640190fd5b5060088054600160a060020a0383166101000274ffffffffffffffffffffffffffffffffffffffff00199091161790556001919050565b60085460009060ff16156113a457600080fd5b61079683836114e2565b6000828211156113ba57fe5b50900390565b60085460009060ff16156113d357600080fd5b610af0848484611548565b60006007546113f8836004546116ad90919063ffffffff16565b111561140357600080fd5b61079683836116c0565b60085460009060ff161561142057600080fd5b61079683836117ba565b60085460009060ff161561143d57600080fd5b61079683836118a9565b60085460009060ff161561145a57600080fd5b6107968383611978565b600160a060020a038116151561147957600080fd5b600654604051600160a060020a038084169216907f8be0079c531659141344cd1fd0a4f28419497f9722a3daafe3b4186f6b6457e090600090a36006805473ffffffffffffffffffffffffffffffffffffffff1916600160a060020a0392909216919091179055565b336000818152600560209081526040808320600160a060020a038716808552908352818420869055815186815291519394909390927f8c5be1e5ebec7d5bd14f71427d1e84f3dd0314c0f7b2291e5b200ac8c7c3b925928290030190a350600192915050565b600160a060020a03831660009081526003602052604081205482111561156d57600080fd5b600160a060020a038416600090815260056020908152604080832033845290915290205482111561159d57600080fd5b600160a060020a03831615156115b257600080fd5b600160a060020a0384166000908152600360205260409020546115db908363ffffffff6113ae16565b600160a060020a038086166000908152600360205260408082209390935590851681522054611610908363ffffffff6116ad16565b600160a060020a038085166000908152600360209081526040808320949094559187168152600582528281203382529091522054611654908363ffffffff6113ae16565b600160a060020a0380861660008181526005602090815260408083203384528252918290209490945580518681529051928716939192600080516020611a32833981519152929181900390910190a35060019392505050565b818101828110156116ba57fe5b92915050565b600654600090600160a060020a031633146116da57600080fd5b60065460a060020a900460ff16156116f157600080fd5b600454611704908363ffffffff6116ad16565b600455600160a060020a038316600090815260036020526040902054611730908363ffffffff6116ad16565b600160a060020a038416600081815260036020908152604091829020939093558051858152905191927f0f6798a560793a54c3bcfe86a93cde1e73087d944c0ea20544137d412139688592918290030190a2604080518381529051600160a060020a03851691600091600080516020611a328339815191529181900360200190a350600192915050565b336000908152600560209081526040808320600160a060020a038616845290915281205480831061180e57336000908152600560209081526040808320600160a060020a0388168452909152812055611843565b61181e818463ffffffff6113ae16565b336000908152600560209081526040808320600160a060020a03891684529091529020555b336000818152600560209081526040808320600160a060020a0389168085529083529281902054815190815290519293927f8c5be1e5ebec7d5bd14f71427d1e84f3dd0314c0f7b2291e5b200ac8c7c3b925929181900390910190a35060019392505050565b336000908152600360205260408120548211156118c557600080fd5b600160a060020a03831615156118da57600080fd5b336000908152600360205260409020546118fa908363ffffffff6113ae16565b3360009081526003602052604080822092909255600160a060020a0385168152205461192c908363ffffffff6116ad16565b600160a060020a038416600081815260036020908152604091829020939093558051858152905191923392600080516020611a328339815191529281900390910190a350600192915050565b336000908152600560209081526040808320600160a060020a03861684529091528120546119ac908363ffffffff6116ad16565b336000818152600560209081526040808320600160a060020a0389168085529083529281902085905580519485525191937f8c5be1e5ebec7d5bd14f71427d1e84f3dd0314c0f7b2291e5b200ac8c7c3b925929081900390910190a35060019291505056fe55736572206e6f7420617574686f72697a656400000000000000000000000000ddf252ad1be2c89b69c2b068fc378daa952ba7f163c4a11628f55a4df523b3efa165627a7a72305820ac082183beda3ef88baf195707e022ddc79e681d38e2a971bf256ed74648198a0029",
  "source": "pragma solidity ^0.5.0;\n\nimport \"openzeppelin-solidity/contracts/token/ERC20/DetailedERC20.sol\";\nimport \"openzeppelin-solidity/contracts/token/ERC20/PausableToken.sol\";\nimport \"openzeppelin-solidity/contracts/token/ERC20/BurnableToken.sol\";\nimport \"openzeppelin-solidity/contracts/token/ERC20/CappedToken.sol\";\nimport \"./TokenWhitelist.sol\";\n\ncontract SecurityToken is DetailedERC20, CappedToken, PausableToken {\n\n    TokenWhitelist public whitelist;\n    event Burn(address indexed burner, uint256 value);\n\n    constructor(uint256 _cap, string memory _name, string memory _symbol, uint8 _decimals, address _whitelist) public\n        DetailedERC20(_name, _symbol, _decimals)\n        CappedToken(_cap) {\n            setupWhitelist(_whitelist);\n    }\n\n    /**\n    * @dev Sets up the centralized whitelist contract\n    * @param _whitelist the address of whitelist contract.\n    * @return A boolean that indicates if the operation was successful.\n    */\n    function setupWhitelist(address _whitelist) public onlyOwner returns (bool) {\n        require(_whitelist != address(0), \"Invalid whitelist address\");\n        whitelist = TokenWhitelist(_whitelist);\n        return true;\n    }\n\n    /**\n    * @dev Overrides MintableToken mint() adding the whitelist validation\n    * @param _to The address that will receive the minted tokens.\n    * @param _amount The amount of tokens to mint.\n    * @return A boolean that indicates if the operation was successful.\n    */\n    function mint(address _to, uint256 _amount) public onlyOwner canMint returns (bool) {\n        require(whitelist.checkWhitelisted(_to), \"User not authorized\");\n        return super.mint(_to, _amount);\n    }\n\n    /**\n    * @dev Overrides BasicToken transfer() adding the whitelist validation\n    * @param _to The address to transfer to.\n    * @param _value The amount to be transferred.\n    * @return A boolean that indicates if the operation was successful.\n    */\n    function transfer(address _to, uint256 _value) public whenNotPaused returns (bool) {\n        require(\n            whitelist.checkWhitelisted(msg.sender) &&\n            whitelist.checkWhitelisted(_to),\n            \"User not authorized\");\n        return super.transfer(_to, _value);\n    }\n\n    /**\n     * @dev Overrides StandardToken transferFrom() adding the whitelist validation\n     * @param _from address The address which you want to send tokens from\n     * @param _to address The address which you want to transfer to\n     * @param _value uint256 the amount of tokens to be transferred\n     */\n    function transferFrom(address _from, address _to, uint256 _value) public whenNotPaused returns (bool) {\n        require(\n            whitelist.checkWhitelisted(msg.sender) &&\n            whitelist.checkWhitelisted(_from) &&\n            whitelist.checkWhitelisted(_to),\n            \"User not authorized\");\n        return super.transferFrom(_from, _to, _value);\n    }\n\n    /**\n     * @dev Overrides StandardToken approve() adding the whitelist validation\n     * @param _spender The address which will spend the funds.\n     * @param _value The amount of tokens to be spent.\n     * @return A boolean that indicates if the operation was successful.\n     */\n    function approve(address _spender, uint256 _value) public whenNotPaused returns (bool) {\n        require(\n            whitelist.checkWhitelisted(msg.sender) &&\n            whitelist.checkWhitelisted(_spender),\n            \"User not authorized\");\n        return super.approve(_spender, _value);\n    }\n\n    /**\n     * @dev Overrides StandardToken increaseApproval() adding the whitelist validation\n     * @param _spender The address which will spend the funds.\n     * @param _addedValue The amount of tokens to increase the allowance by.\n     * @return A boolean that indicates if the operation was successful.\n     */\n    function increaseApproval(address _spender, uint _addedValue) public whenNotPaused returns (bool) {\n        require(\n            whitelist.checkWhitelisted(msg.sender) &&\n            whitelist.checkWhitelisted(_spender),\n            \"User not authorized\");\n        return super.increaseApproval(_spender, _addedValue);\n    }\n\n    /**\n     * @dev Overrides StandardToken decreaseApproval() adding the whitelist validation\n     * @param _spender The address which will spend the funds.\n     * @param _subtractedValue The amount of tokens to decrease the allowance by.\n     * @return A boolean that indicates if the operation was successful.\n     */\n    function decreaseApproval(address _spender, uint _subtractedValue) public whenNotPaused returns (bool) {\n        require(\n            whitelist.checkWhitelisted(msg.sender) &&\n            whitelist.checkWhitelisted(_spender),\n            \"User not authorized\");\n        return super.decreaseApproval(_spender, _subtractedValue);\n    }\n\n    /**\n     * @dev new function to burn tokens from a centralized owner\n     * @param _who The address which will be burned.\n     * @param _value The amount of tokens to burn.\n     * @return A boolean that indicates if the operation was successful.\n     */\n    function burnFor(address _who, uint _value) public onlyOwner returns (bool) {\n        require(_value <= balances[_who], \"Insufficient funds\");\n        balances[_who] = balances[_who].sub(_value);\n        totalSupply_ = totalSupply_.sub(_value);\n        emit Burn(_who, _value);\n        emit Transfer(_who, address(0), _value);\n        return true;\n    }\n\n}\n",
  "sourcePath": "/Users/thirukiran/Documents/ICO/TvcToken/contracts/token/SecurityToken.sol",
  "compiler": {
    "name": "solc",
    "version": "0.5.0+commit.1d4f565a.Emscripten.clang"
  },
  "schemaVersion": "3.0.0",
  "updatedAt": "2019-01-18T06:56:59.034Z",
  "devdoc": {
    "methods": {
      "allowance(address,address)": {
        "details": "Function to check the amount of tokens that an owner allowed to a spender.",
        "params": {
          "_owner": "address The address which owns the funds.",
          "_spender": "address The address which will spend the funds."
        },
        "return": "A uint256 specifying the amount of tokens still available for the spender."
      },
      "approve(address,uint256)": {
        "details": "Overrides StandardToken approve() adding the whitelist validation",
        "params": {
          "_spender": "The address which will spend the funds.",
          "_value": "The amount of tokens to be spent."
        },
        "return": "A boolean that indicates if the operation was successful."
      },
      "balanceOf(address)": {
        "details": "Gets the balance of the specified address.",
        "params": {
          "_owner": "The address to query the the balance of."
        },
        "return": "An uint256 representing the amount owned by the passed address."
      },
      "burnFor(address,uint256)": {
        "details": "new function to burn tokens from a centralized owner",
        "params": {
          "_value": "The amount of tokens to burn.",
          "_who": "The address which will be burned."
        },
        "return": "A boolean that indicates if the operation was successful."
      },
      "decreaseApproval(address,uint256)": {
        "details": "Overrides StandardToken decreaseApproval() adding the whitelist validation",
        "params": {
          "_spender": "The address which will spend the funds.",
          "_subtractedValue": "The amount of tokens to decrease the allowance by."
        },
        "return": "A boolean that indicates if the operation was successful."
      },
      "finishMinting()": {
        "details": "Function to stop minting new tokens.",
        "return": "True if the operation was successful."
      },
      "increaseApproval(address,uint256)": {
        "details": "Overrides StandardToken increaseApproval() adding the whitelist validation",
        "params": {
          "_addedValue": "The amount of tokens to increase the allowance by.",
          "_spender": "The address which will spend the funds."
        },
        "return": "A boolean that indicates if the operation was successful."
      },
      "mint(address,uint256)": {
        "details": "Overrides MintableToken mint() adding the whitelist validation",
        "params": {
          "_amount": "The amount of tokens to mint.",
          "_to": "The address that will receive the minted tokens."
        },
        "return": "A boolean that indicates if the operation was successful."
      },
      "pause()": {
        "details": "called by the owner to pause, triggers stopped state"
      },
      "renounceOwnership()": {
        "details": "Allows the current owner to relinquish control of the contract."
      },
      "setupWhitelist(address)": {
        "details": "Sets up the centralized whitelist contract",
        "params": {
          "_whitelist": "the address of whitelist contract."
        },
        "return": "A boolean that indicates if the operation was successful."
      },
      "totalSupply()": {
        "details": "Total number of tokens in existence"
      },
      "transfer(address,uint256)": {
        "details": "Overrides BasicToken transfer() adding the whitelist validation",
        "params": {
          "_to": "The address to transfer to.",
          "_value": "The amount to be transferred."
        },
        "return": "A boolean that indicates if the operation was successful."
      },
      "transferFrom(address,address,uint256)": {
        "details": "Overrides StandardToken transferFrom() adding the whitelist validation",
        "params": {
          "_from": "address The address which you want to send tokens from",
          "_to": "address The address which you want to transfer to",
          "_value": "uint256 the amount of tokens to be transferred"
        }
      },
      "transferOwnership(address)": {
        "details": "Allows the current owner to transfer control of the contract to a newOwner.",
        "params": {
          "_newOwner": "The address to transfer ownership to."
        }
      },
      "unpause()": {
        "details": "called by the owner to unpause, returns to normal state"
      }
    }
  },
  "userdoc": {
    "methods": {
      "renounceOwnership()": {
        "notice": "Renouncing to ownership will leave the contract without an owner. It will not be possible to call the functions with the `onlyOwner` modifier anymore."
      }
    }
  }
}