{
  "contractName": "TokenWhitelist",
  "abi": [
    {
      "constant": false,
      "inputs": [],
      "name": "renounceOwnership",
      "outputs": [],
      "payable": false,
      "stateMutability": "nonpayable",
      "type": "function",
      "signature": "0x715018a6"
    },
    {
      "constant": true,
      "inputs": [],
      "name": "owner",
      "outputs": [
        {
          "name": "",
          "type": "address"
        }
      ],
      "payable": false,
      "stateMutability": "view",
      "type": "function",
      "signature": "0x8da5cb5b"
    },
    {
      "constant": false,
      "inputs": [
        {
          "name": "_newOwner",
          "type": "address"
        }
      ],
      "name": "transferOwnership",
      "outputs": [],
      "payable": false,
      "stateMutability": "nonpayable",
      "type": "function",
      "signature": "0xf2fde38b"
    },
    {
      "anonymous": false,
      "inputs": [
        {
          "indexed": true,
          "name": "wallet",
          "type": "address"
        }
      ],
      "name": "Whitelisted",
      "type": "event",
      "signature": "0xaab7954e9d246b167ef88aeddad35209ca2489d95a8aeb59e288d9b19fae5a54"
    },
    {
      "anonymous": false,
      "inputs": [
        {
          "indexed": true,
          "name": "wallet",
          "type": "address"
        }
      ],
      "name": "Dewhitelisted",
      "type": "event",
      "signature": "0x78c8e01ebc9b1b82f14af9f3a9b6fa7bdba5e36f9e96d15ca3aebc36cf72ce85"
    },
    {
      "anonymous": false,
      "inputs": [
        {
          "indexed": true,
          "name": "previousOwner",
          "type": "address"
        }
      ],
      "name": "OwnershipRenounced",
      "type": "event",
      "signature": "0xf8df31144d9c2f0f6b59d69b8b98abd5459d07f2742c4df920b25aae33c64820"
    },
    {
      "anonymous": false,
      "inputs": [
        {
          "indexed": true,
          "name": "previousOwner",
          "type": "address"
        },
        {
          "indexed": true,
          "name": "newOwner",
          "type": "address"
        }
      ],
      "name": "OwnershipTransferred",
      "type": "event",
      "signature": "0x8be0079c531659141344cd1fd0a4f28419497f9722a3daafe3b4186f6b6457e0"
    },
    {
      "constant": false,
      "inputs": [
        {
          "name": "_wallet",
          "type": "address"
        }
      ],
      "name": "enableWallet",
      "outputs": [],
      "payable": false,
      "stateMutability": "nonpayable",
      "type": "function",
      "signature": "0x1269359a"
    },
    {
      "constant": false,
      "inputs": [
        {
          "name": "_wallet",
          "type": "address"
        }
      ],
      "name": "disableWallet",
      "outputs": [],
      "payable": false,
      "stateMutability": "nonpayable",
      "type": "function",
      "signature": "0xa926819f"
    },
    {
      "constant": true,
      "inputs": [
        {
          "name": "_wallet",
          "type": "address"
        }
      ],
      "name": "checkWhitelisted",
      "outputs": [
        {
          "name": "",
          "type": "bool"
        }
      ],
      "payable": false,
      "stateMutability": "view",
      "type": "function",
      "signature": "0x20d8dad0"
    }
  ],
  "bytecode": "0x608060405260008054600160a060020a03191633179055610446806100256000396000f3fe6080604052600436106100775763ffffffff7c01000000000000000000000000000000000000000000000000000000006000350416631269359a811461007c57806320d8dad0146100b1578063715018a6146100f85780638da5cb5b1461010d578063a926819f1461013e578063f2fde38b14610171575b600080fd5b34801561008857600080fd5b506100af6004803603602081101561009f57600080fd5b5035600160a060020a03166101a4565b005b3480156100bd57600080fd5b506100e4600480360360208110156100d457600080fd5b5035600160a060020a0316610281565b604080519115158252519081900360200190f35b34801561010457600080fd5b506100af61029f565b34801561011957600080fd5b5061012261030b565b60408051600160a060020a039092168252519081900360200190f35b34801561014a57600080fd5b506100af6004803603602081101561016157600080fd5b5035600160a060020a031661031a565b34801561017d57600080fd5b506100af6004803603602081101561019457600080fd5b5035600160a060020a031661037a565b600054600160a060020a031633146101bb57600080fd5b600160a060020a038116151561023257604080517f08c379a000000000000000000000000000000000000000000000000000000000815260206004820152600e60248201527f496e76616c69642077616c6c6574000000000000000000000000000000000000604482015290519081900360640190fd5b600160a060020a0381166000818152600160208190526040808320805460ff1916909217909155517faab7954e9d246b167ef88aeddad35209ca2489d95a8aeb59e288d9b19fae5a549190a250565b600160a060020a031660009081526001602052604090205460ff1690565b600054600160a060020a031633146102b657600080fd5b60008054604051600160a060020a03909116917ff8df31144d9c2f0f6b59d69b8b98abd5459d07f2742c4df920b25aae33c6482091a26000805473ffffffffffffffffffffffffffffffffffffffff19169055565b600054600160a060020a031681565b600054600160a060020a0316331461033157600080fd5b600160a060020a038116600081815260016020526040808220805460ff19169055517f78c8e01ebc9b1b82f14af9f3a9b6fa7bdba5e36f9e96d15ca3aebc36cf72ce859190a250565b600054600160a060020a0316331461039157600080fd5b61039a8161039d565b50565b600160a060020a03811615156103b257600080fd5b60008054604051600160a060020a03808516939216917f8be0079c531659141344cd1fd0a4f28419497f9722a3daafe3b4186f6b6457e091a36000805473ffffffffffffffffffffffffffffffffffffffff1916600160a060020a039290921691909117905556fea165627a7a7230582095132d2595f1912fedd89d753ba927ea4b2b41783fcf1a600894e68a7b4ce36f0029",
  "source": "pragma solidity ^0.5.0;\n\nimport \"openzeppelin-solidity/contracts/ownership/Ownable.sol\";\n\ncontract TokenWhitelist is Ownable {\n\n    mapping(address => bool) private whitelist;\n\n    event Whitelisted(address indexed wallet);\n    event Dewhitelisted(address indexed wallet);\n\n    function enableWallet(address _wallet) public onlyOwner {\n        require(_wallet != address(0), \"Invalid wallet\");\n        whitelist[_wallet] = true;\n        emit Whitelisted(_wallet);\n    }\n\n    function disableWallet(address _wallet) public onlyOwner {\n        whitelist[_wallet] = false;\n        emit Dewhitelisted (_wallet);\n    }\n\n    function checkWhitelisted(address _wallet) public view returns (bool){\n        return whitelist[_wallet];\n    }\n\n}\n",
  "sourcePath": "/Users/thirukiran/Documents/ICO/TvcToken/contracts/token/TokenWhitelist.sol",
  "compiler": {
    "name": "solc",
    "version": "0.5.0+commit.1d4f565a.Emscripten.clang"
  },
  "schemaVersion": "3.0.0",
  "updatedAt": "2019-01-18T15:32:38.983Z",
  "devdoc": {
    "methods": {
      "renounceOwnership()": {
        "details": "Allows the current owner to relinquish control of the contract."
      },
      "transferOwnership(address)": {
        "details": "Allows the current owner to transfer control of the contract to a newOwner.",
        "params": {
          "_newOwner": "The address to transfer ownership to."
        }
      }
    }
  },
  "userdoc": {
    "methods": {
      "renounceOwnership()": {
        "notice": "Renouncing to ownership will leave the contract without an owner. It will not be possible to call the functions with the `onlyOwner` modifier anymore."
      }
    }
  }
}